:020000040800F2
:100000000000052001050008890900088B09000887
:100010008D0900088F090008910900080000000000
:100020000000000000000000000000003154000843
:100030009309000800000000C15400089509000859
:100040005105000851050008510500085105000838
:100050005105000851050008510500085105000828
:100060005105000851050008510500085105000818
:1000700051050008BD090008510500085105000898
:1000800051050008510500085105000851050008F8
:1000900051050008510500085105000851050008E8
:1000A00051050008510500085105000851050008D8
:1000B00051050008510500085105000851050008C8
:1000C00051050008510500085105000851050008B8
:1000D00051050008510500085105000851050008A8
:1000E0005105000851050008510500085105000898
:1000F0005105000851050008510500085105000888
:100100005105000851050008510500085105000877
:1001100051050008510500087D0900085105000837
:10012000510500085105000851050008B1090008F3
:100130005105000851050008510500085105000847
:1001400051050008510500085105000899090008EB
:100150005105000851050008510500085105000827
:100160005105000851050008510500085105000817
:100170005105000851050008510500080000000065
:1001800051050008510500085105000851050008F7
:1001900051050008510500085105000851050008E7
:1001A000A50900085105000851050008C909000803
:0401B000F5780008D6
:1001C00010B5054C237833B9044B13B10448AFF391
:1001D00000800123237010BDD40000200000000027
:1001E000E84E010808B5034B1BB103490348AFF3C0
:1001F000008008BD00000000D8000020E84E010883
:1002000053B94AB9002908BF00281CBF4FF0FF317D
:100210004FF0FF3000F072B9ADF1080C6DE904CE7B
:1002200000F006F8DDF804E0DDE9022304B07047D1
:100230002DE9F047089E04468846002B4BD18A42A0
:10024000154667D9B2FA82F24AB1C2F1200701FA23
:1002500002F320FA07F7954047EA030894404FEA73
:10026000154E230CB8FBFEF71FFA85FC0EFB178812
:1002700043EA084307FB0CF1994209D9EB1807F14F
:10028000FF3080F01B81994240F21881023F2B44DD
:100290005B1AA4B2B3FBFEF00EFB103344EA034436
:1002A00000FB0CFCA44509D92C1900F1FF3380F0A8
:1002B0000781A44540F2048102382C4440EA0740FB
:1002C000A4EB0C0400271EB1D4400023C6E9004370
:1002D0003946BDE8F0878B4209D9002E00F0EB804B
:1002E0000027C6E9000138463946BDE8F087B3FA71
:1002F00083F7002F47D18B4202D3824200F2FA806B
:10030000841A61EB030301209846002EE0D0C6E971
:100310000048DDE702B9FFDEB2FA82F2002A40F0BF
:100320008F80491B4FEA154E1FFA85F80127B1FB54
:10033000FEFC230C0EFB1C1143EA014308FB0CF1ED
:10034000994207D9EB180CF1FF3002D2994200F222
:10035000CD808446591AA3B2B1FBFEF00EFB1014F7
:1003600043EA044408FB00F8A04507D92C1900F122
:10037000FF3302D2A04500F2B6801846A4EB080471
:1003800040EA0C409FE7C7F1200CBB4022FA0CFE6C
:100390004EEA030E01FA07F420FA0CF521FA0CF3E9
:1003A0004FEA1E482543B3FBF8F92C0C08FB193320
:1003B0001FFA8EFA44EA034309FB0AF49C4202FA4C
:1003C00007F200FA07F10BD91EEB030309F1FF3026
:1003D00080F087809C4240F28480A9F10209734436
:1003E0001B1BADB2B3FBF8F008FB103345EA034426
:1003F00000FB0AFAA24508D91EEB040400F1FF3302
:100400006BD2A24569D90238744440EA0940A0FB86
:100410000289A4EB0A044C45C2464B4654D351D042
:10042000002E69D0B1EB0A0564EB030404FA0CFC5E
:10043000FD40FC404CEA0505C6E90054002747E7AB
:10044000C2F1200320FA03F7954001FA02F021FAE5
:1004500003F34FEA154E3843010CB3FBFEF71FFAC6
:1004600085F80EFB173341EA034107FB08F38B4283
:1004700004FA02F407D9691807F1FF3C2FD28B4226
:100480002DD9023F2944CB1A81B2B3FBFEF00EFBFB
:10049000103341EA034100FB08F38B4207D9691886
:1004A00000F1FF3C17D28B4215D902382944C91AF2
:1004B00040EA07473BE73746304609E70746E7E6A5
:1004C0001846FBE64145ABD2B8EB020A69EB0E02D7
:1004D00001381346A4E76046E9E7184695E7674602
:1004E000D1E781467CE702382C4447E7ACF1020CA7
:1004F0002B442FE7384608E73746E9E6704700BF48
:10050000DFF834D0002103E00C4B5B58435004313A
:100510000B480C4B42189A42F6D30B4A02E00023D8
:1005200042F8043B094B9A42F9D301F0A3F914F0C5
:100530007BFC00F0A5F870470000052024A6010808
:1005400000000020D4000020D4000020B458032074
:10055000FEE7000007B500F0F9FE00F06FFE01F0C5
:10056000B3F8642001F0D8F94FF4F0714FF44870FB
:1005700001F0E8F80C4B002100911A6B42F4805214
:100580001A631A6B02F480520092009A01911A6B5E
:1005900042F480221A631B6B03F480230193019BB6
:1005A00003B05DF804FB00BF0038024030B585B0F1
:1005B00001A801F0F9F8BDF806400AF0F9FCA4B270
:1005C000844249DB0023ADF80630ADF80A30294CEF
:1005D000BDF8061022688A4293B2BDF80620BDF825
:1005E0000A00CCBF9A1AD21A6368834299B2BDF846
:1005F0000A30207ACCBFCB1A5B1A9DF804108842CF
:1006000092B29BB203D1142A01D8142B22D99DF89F
:10061000043023729DF8043003F0FF0523B3BDF8C6
:1006200006302360144B1B78542BBDF80A300DD1D3
:10063000EF2B89BFBDF80A20BDF80A304FF4F073E4
:10064000534384BF4FF4E17293FBF2F309486360B4
:1006500009F002FC05B030BDBDF80A400AF0BEFC4E
:10066000A4B28442AEDAB2E7024809F0F5FBC4E96D
:100670000055EFE7F0000020F0020020FFF796BFE2
:1006800000B5A5B001F01CF9304B002101911A6CA6
:1006900042F080521A641B6C03F080530193019B5B
:1006A0002B4B02911A6842F440421A601B6803F413
:1006B000404302930124029B4FF48033CDE9084369
:1006C00002244FF48003CDE90E4308264FF4B4739F
:1006D000CDE910630725062308A81294CDE913532A
:1006E00003F0FEFF00B1FEE703F000F9054600B19C
:1006F000FEE7802315934FF00063229315A84FF473
:10070000C073CDE9193603F089FE0F23CDE9033418
:100710004FF4A0504FF48053CDE90603052103A800
:10072000059503F0B3FD064600B1FEE7094DFFF75E
:1007300011FF0FCD15AC0FC42B682360314615A8EF
:1007400004F05AFC04F053FCFEE700BF00380240FE
:1007500000700040004F010873B5052304460D46A4
:100760001646009300F1460201F15A030A380A398D
:1007700009F066F9054808F0FDFC2AB221B23046BE
:1007800002B0BDE8704009F09FB800BFCC7A010804
:100790002DE9FF4108F004FE01200FF007FE0021C3
:1007A000012009F04BFB002009F018FB08F078FD50
:1007B000052008F023FC0520642340F212220021CA
:1007C000009009F03DF93F483F4D08F0D3FC0A2264
:1007D00011463E4809F020F93D4808F0CBFC0A22BA
:1007E0002D213C4809F018F9364808F0C3FC7D2259
:1007F0000A21394809F010F9354808F0BBFC7D2280
:100800002D21344809F008F92E4808F0B3FCF022F5
:100810000A21324809F000F92D4808F0ABFCF0221B
:100820002D212F4809F0F8F80A242A78214640F2B1
:100830002620FFF791FF6A78214640F27B20FFF7E0
:100840008BFF21467334AA784FF43470A4B2FFF7BB
:1008500083FFB4F5EB7F05F10305E6D10524214EB6
:10086000184F0A25A04640F2BD1304F1A50240F23C
:1008700059112046CDF8008009F0E2F8384608F01A
:1008800079FC29464FF4B47256F8040F09F0C4F805
:10089000B43440F221239C4205F1C805E3D104A8F9
:1008A000114B40F8043D0121002204F0C7FB0F4B1F
:1008B0001E21186004F0D2FB08F00EFB1E2004F08D
:1008C000B5FBF9E7E8540108144F0108CCA501086D
:1008D000CC7A0108D0A50108D9A50108DDA5010839
:1008E000E1A50108FCFFFF1F7D060008F080002045
:1008F00010B5014688B00022362001F033F83620CA
:1009000001F064F800230293174B1A6C42F01002B6
:100910001A641B6C03F01003029301A903A8029B45
:1009200003F05EFD069BCBB903F04AFD0F4C104B64
:10093000236040F2E733E3600E4BB0FBF3F0013885
:100940000023606020462361A360A36104F0B4F932
:1009500040B9204604F093F808B010BD03F030FD14
:100960004000E3E70120F7E700380240F480002070
:100970000010004040420F0000F0BCBF014804F0EE
:1009800092B800BFF48000207047FEE7FEE7FEE764
:10099000FEE7704704F018BC014801F0D5BD00BF68
:1009A00040540320014802F025BE00BF98530320A5
:1009B000014B186F01F02CB9CC810020014BD86B92
:1009C00001F026B938810020014803F03BBB00BF8D
:1009D000EC82002010B5034C236813B905F0B6FE75
:1009E000206010BD080100200F494B68B3F57A7FE5
:1009F0000A4602DC01334B60704700234B608B6872
:100A0000B3F57A7F84BF4FF47A738B60896864236F
:100A10004B434FF47A71B3FBF1F3C3F16403D3603A
:100A200000239360704700BF0801002010B5054CFB
:100A300005F08CFE2368834202D105F07FFC206123
:100A400010BD00BF0801002010B5074C05F07EFE68
:100A50002368834207D105F071FC2369C01AA3689B
:100A600060611844A06010BD08010020704700209C
:100A7000704710B5044600F035FBA821E0B200F045
:100A800049FB10BD13B500240221C0B28DF8074008
:100A900000F040FB8DF807009DF8073003F00F03CE
:100AA0008DF807309DF80730022B88BF8DF807407E
:100AB000044B9DF807209DF807005A7000229A7099
:100AC00002B010BD2001002073B5154C1546A37867
:100AD00062789A420E461FD903B3012B0CBF09213D
:100AE000002104230DEB0302C0B200F02DFB9DF8A2
:100AF00004309DF805201B0203F470631343338018
:100B00009DF806309DF807201B0203F47063134321
:100B10002B80A3780133A37002B070BD0321E0E7FE
:100B2000200100200122A421C0B200F0DDBA002281
:100B3000A421C0B200F0D8BAFFF7F9BF7047000097
:100B4000074BDA78904209D01979884206D00AB169
:100B500021B901221344D87000F0C4BA704700BF15
:100B60002001002038B504460D460020CB4906F090
:100B7000B5FACB49032006F0B1FACA49002006F0C5
:100B8000ADFAC949022006F0A9FAC649002006F0CC
:100B9000A5FAC649002006F0A1FA0A2000F0EAFAF8
:100BA000C349002006F09AFAC249002006F096FADE
:100BB0000A2000F0DFFAC049002006F08FFABF4992
:100BC000002006F08BFABE49002006F087FABD49E6
:100BD000002006F083FABC49002006F07FFABB49EA
:100BE000002006F07BFAAD49002006F077FAB849FC
:100BF000002006F073FAB749002006F06FFAB649F4
:100C0000002006F06BFAB549002006F067FAB449F7
:100C1000002006F063FAB349002006F05FFAB249FB
:100C2000002006F05BFAB149002006F057FAA5490A
:100C3000002006F053FA9949002006F04FFAAC491B
:100C4000022006F04BFAAB49002006F047FAAA4909
:100C5000002006F043FAA949002006F03FFAA8490F
:100C6000002006F03BFAA749002006F037FAA64913
:100C7000002006F033FA9749002006F02FFAA34926
:100C8000002006F02BFA9549002006F027FAA0492B
:100C9000002006F023FA9F49002006F01FFA9E4923
:100CA000022006F01BFA7F49002006F017FA9B4944
:100CB000062006F013FA9A49002006F00FFA994927
:100CC0000E2006F00BFA9849002006F007FA974923
:100CD0000E2006F003FA9649002006F0FFF9954928
:100CE0000A2006F0FBF99449002006F0F7F9934931
:100CF000002006F0F3F96B49002006F0EFF9904967
:100D00000A2006F0EBF98F49002006F0E7F98E493A
:100D10000F2006F0E3F98249002006F0DFF98B4945
:100D20000F2006F0DBF98049002006F0D7F988494A
:100D30000A2006F0D3F97E49002006F0CFF9854954
:100D40000F2006F0CBF97C49002006F0C7F9824954
:100D50000F2006F0C3F98149002006F0BFF9804951
:100D60000A2006F0BBF97F49002006F0B7F97E495A
:100D70000A2006F0B3F94B49002006F0AFF97B4991
:100D80000A2006F0ABF96F49002006F0A7F9784970
:100D90000F2006F0A3F96249002006F09FF975497B
:100DA0000F2006F09BF96049002006F097F9724980
:100DB0000A2006F093F95E49002006F08FF96F498A
:100DC0000F2006F08BF95C49002006F087F96C498A
:100DD0000F2006F083F93F49002006F07FF96949AA
:100DE000002006F07BF96849002006F077F9674992
:100DF000002006F073F96649002006F06FF9654996
:100E0000002006F06BF92549002006F067F96249D9
:100E1000032006F063F92149002006F05FF91F491D
:100E2000002006F05BF95D49102006F057F91B49D8
:100E3000002006F053F95A49102006F04FF900201F
:100E4000584906F04BF9782000F094F9002C00F096
:100E5000C980022C03D15449002006F03FF9012D2E
:100E60000BD15249002006F039F95149042006F00F
:100E700035F95049042006F031F94F49002006F0B9
:100E80002DF94E49002006F029F94D49002006F0C1
:100E900025F94C49002006F021F995E0204F010882
:100EA000224F0108264F0108284F01082B4F010847
:100EB0002D4F01082F4F0108314F0108334F010812
:100EC000354F0108374F0108394F01083B4F0108E2
:100ED0003D4F01083F4F0108414F0108434F0108B2
:100EE000454F0108474F0108494F01084B4F010882
:100EF0004D4F0108504F0108524F0108544F01084F
:100F0000564F0108584F01085A4F01085C4F01081D
:100F10005E4F0108604F0108624F0108654F0108EC
:100F20006C4F01086E4F01087D4F01087F4F01088B
:100F30008E4F0108904F01089B4F01089D4F0108FB
:100F40009F4F0108AA4F0108AC4F0108BC4F010890
:100F5000CC4F0108D74F0108E74F0108F74F0108B0
:100F6000F94F01080450010806500108115001080A
:100F70001C5001082C5001083C5001084750010842
:100F80005750010867500108695001086B5001086B
:100F90006D5001086F50010871500108755001082B
:100FA0008650010897500108995001089D5001088A
:100FB0009F500108A4500108A9500108AB50010836
:100FC000AD500108AF5001080849002006F086F82E
:100FD0000749002006F082F80649002006F07EF856
:100FE000002038BD0449204637E700BFB150010852
:100FF000204F0108B35001089B50010870B52F4DD8
:1010000088B005F1540002F0EFF90446002852D1EF
:101010002B4A2C4B2C4E0190C5E915234FF48043ED
:10102000C5E91700C5E91930C5E91B006867336BCE
:1010300043F002033363336B059003F00203019323
:10104000019B4FF480711223CDE903130220042386
:10105000CDE9060303A91D4801F084F94FF400739C
:1010600003A91A48039301F07DF90294336C43F409
:1010700000133364336C03F400130293029B336A4E
:1010800043F400133362336A23F4001333622246BD
:1010900005211F2000F066FC1F2000F097FC22466F
:1010A0000521202000F05EFC202000F08FFC05F1DF
:1010B000540001F037FF08B070BD00BF28010020C8
:1010C00000540040801A060000380240000402402C
:1010D00008B5034801F0D3FFBDE80840FFF78EBF15
:1010E0007C010020FFF78ABF10B586B006AC012353
:1010F00004F8012D6422CDE9013200940A4601462C
:10110000034801F0D5FF08B1FFF7E2FF06B010BDBC
:101110007C0100207FB506AA002302F8013D4FF4B0
:101120007A7C01230092CDE9013C0A46014605483C
:1011300002F04EF808B1FFF7CBFF9DF8170007B09B
:101140005DF804FB7C0100201FB54FF47A74CDE9F3
:101150000134009201230A460146054802F038F89E
:10116000044608B1FFF7B4FF204604B010BD00BF2D
:101170007C01002000F0D0BB00B595B04FF4807327
:101180000C934FF08072052306930F9200230122E7
:10119000CDE90323CDE90D330B93CDE9113313933F
:1011A0000093102302934FF48003019205936A4643
:1011B000034606A9044802F059FD003018BF01207B
:1011C00015B05DF804FB00BFEC82002000B595B0BF
:1011D0004FF480730C930623069341F28832002368
:1011E00006A915480F93CDE90D330B93CDE91133C3
:1011F000139302F0F7FCE0B90223CDE9003301229A
:101200001023CDE902324FF480010523CDE9051307
:101210004FF0807304900F936A4641F2883306A919
:10122000054802F023FD003018BF012015B05DF81D
:1012300004FB0120FAE700BFEC82002000B591B06A
:101240004FF480730893EB2302934FF440630993A8
:101250004FF4005305934FF040720023CDE90A325A
:101260000A22079202A96A4606480F93CDE90D3378
:10127000019302F04DFD003018BF012011B05DF860
:1012800004FB00BFEC820020F0B589B02C4B2D4D43
:101290002D48002400949A6B42F002029A639A6BE4
:1012A00002F002020092009A9A6942F002029A61E8
:1012B0009A6922F002029A6101941A6B42F00202CA
:1012C0001A631A6B02F002020192019A02941A6BDD
:1012D00042F020021A631B6B03F0200302934022AA
:1012E000029B0223CDE9032301210323CDE905134A
:1012F0000A2703A90926079701F034F84FF4806301
:1013000003A9284603930594079601F02BF84FF4A0
:10131000407303A928460393079701F023F8C023DD
:1013200003A928460393079601F01CF822460F21D3
:101330005B2000F017FB5B2000F048FB09B0F0BD1C
:10134000003802400014024000040240F0B5494C4D
:10135000494B236091B0204602F031FC054618B19C
:101360000125284611B0F0BD01462046FFF78CFF4D
:1013700001261023C4E90166E3604FF0807797FAF5
:10138000A7F3B3FA83F3013B236120464FF4806354
:10139000C4E90535C4E9075502F0BEFB0028DFD1DA
:1013A0004FF480756623CDE909000B900790CDE9D5
:1013B0000D000F9041F2883202A920460895029351
:1013C00002F010FC08B10425CBE7992341F28832E2
:1013D00002A92046029302F005FC0028F3D141F255
:1013E0008830FFF7C9FE0028EDD18523CDE909003B
:1013F0000790CDE90C60CDE90E0041F2883202A9D8
:101400002046089502930B9702F0ECFB0028DAD1F6
:1014100041F288320DF10701204602F07CFD0028E0
:10142000D1D1FFF7D3FE05460028CCD1812302930A
:10143000F02292FAA2F29DF807300A21B2FA82F263
:1014400001FA02F203F00F03134302A941F28832BA
:1014500020468DF8073002F0C5FB0028B3D141F2D9
:1014600088320DF10701204602F0F6FC00283FF417
:1014700078AFA8E7EC820020001000A02DE9F74328
:10148000214C1027E51901264FF00008214681461E
:101490004FF6FF722846CDF80480C4E90067C4E91E
:1014A000026803F0C2FA304600F036FA0223214601
:1014B0004FF6FF722846C4E90037C4E9026803F01A
:1014C000B4FA0323C4E90037214608234FF6FF721C
:1014D0002846C4E9023803F0A8FA4FF40C730193CC
:1014E0000423C4E900372146019BA6604FF6FF7232
:1014F0002846E36003F099FA4946284603B0BDE860
:10150000F04303F0A9BA00BFD001002070B5064631
:101510008EB0002800F0C180614B62480024009426
:101520009A6B42F001029A639A6B02F001020092F8
:10153000009A01941A6B42F480021A631A6B02F447
:1015400080020192019A02941A6B42F004021A631B
:101550001A6B02F004020292029A03941A6B42F090
:1015600008021A631A6B02F008020392039A0494A9
:101570001A6B42F010021A631A6B02F01002049206
:10158000049A05941A6B42F020021A631A6B02F057
:1015900020020592059A06941A6B42F040021A63E3
:1015A0001A6B02F040020692069A07941A6B42F0F8
:1015B00080021A631A6B02F080020792079A08945D
:1015C0001A6B42F480721A631B6B03F480730EADC6
:1015D0000893089B012345F8143D0222CDE90A2314
:1015E00029460C920C220D9200F0BCFE4CF20373C3
:1015F00029462D48099300F0B5FE4FF6837329461E
:101600002A48099300F0AEFE4FF63F0329462848CA
:10161000099300F0A7FE48F23313294625480993A1
:1016200000F0A0FE4FF60C7329462348099300F002
:1016300099FE40F2FF6329462048099300F092FE8C
:101640001F4B80214FF40072C3E913124FF48060E6
:101650004FF48052C3E915024FF48042C3E91724C6
:101660004FF400321D46C3E919240322C3E91B24A9
:10167000144A45F8442F5C67284635639C64DE674E
:1016800000F046FA284600F0C5F938202246052128
:1016900000F068F9382000F099F90EB070BD00BF75
:1016A0000038024000080240000C024000100240D6
:1016B0000014024000180240001C024000200240BA
:1016C000D00100201064024010B51B4C1B4B23615D
:1016D00007210223C4E929310422C4E92D33C4F8C7
:1016E000BC3020204023C4E92B21C4E90803002199
:1016F0004FF4C073C4E90A314FF4006C4FF48053C7
:1017000004F11000C4E90511E261C4E90CC3A1634E
:10171000FFF7FCFE04F1A40104F1100003F065F9E9
:10172000074C38B10123237040F26950FFF7A6FE41
:10173000207810BD2070F7E7D0010020400100A004
:10174000340000202DE9F843154D164E2B688146D4
:101750003078884698476B6854209847C0B2112863
:1017600034462F460AD06B6870209847C0B2702369
:101770001128337004D00320BDE8F883542333705C
:10178000C14534BF01230C2323722078BB686760F6
:10179000984763682078DB6898470020ECE700BF33
:1017A0000C000020F00200202DE9F74F304C636858
:1017B00080461B692078984788F8000060B108F1DE
:1017C000020901AE6D46002704F10C0A04F1140B66
:1017D00098F80030BB4203D8002003B0BDE8F08F7A
:1017E000636820785B69294632469847227A100759
:1017F00041BF2B88318829803380910741BF2B88D6
:10180000C3F5477303332B80530748BF33885AF817
:10181000272035F802CB48BFC3F5EF734FEA8701A5
:1018200044BF0133338051F80BE036F8020B93B21A
:10183000944588BFACEB03031FFA8EF298BFA3EB6D
:101840000C0370458CBF821A121A9BB292B21344D9
:10185000052BC4BF4AF801C04BF801005AF801300B
:1018600029F8023B5BF80130A9F802300137AFE7F5
:10187000F00200200F49D1F8883043F47003C1F81A
:1018800088300D4B1A68002042F001021A609860FF
:101890001A6822F0847222F480321A60074A5A6071
:1018A0001A6822F480221A60D8604FF000638B60BF
:1018B000704700BF00ED00E0003802401030002407
:1018C00008B50B4B1A6842F400721A601A6842F4A9
:1018D00080621A601A6842F480721A60032000F075
:1018E0002FF80F20FFF704F801F0FEFF002008BDDD
:1018F000003C0240034A044B11681B780B44136000
:10190000704700BF388300203C000020014B18685E
:10191000704700BF3883002038B50446FFF7F6FF54
:10192000631C1CBF054B1B78054618BFE418FFF766
:10193000EDFF401BA042FAD338BD00BF3C000020A1
:10194000074AD36823F4E0631B041B0C43F0BF6316
:10195000000243F4003300F4E0600343D3607047B7
:1019600000ED00E0174B70B5DC68C4F30224C4F14D
:101970000705042D04F1040328BF04254FF0FF36AA
:10198000062B06FA05F38CBF033C002421EA03036F
:10199000A34006FA04F422EA0404002843EA0403FC
:1019A000A8BF00F160404FEA0313BCBF00F00F0076
:1019B000054ADBB2AABF00F56140135480F800333A
:1019C00070BD00BF00ED00E014ED00E0002808DB72
:1019D0004209012300F01F0003FA00F0014B43F815
:1019E0002200704700E100E00368DAB223F47F735D
:1019F00023F003031821103AB2FBF1F20449032A41
:101A000088BF0433895C8365C165806D704700BF02
:101A1000CD50010870B50446FFF778FF0546002C4D
:101A200071D0002384F834302268022384F83530E2
:101A3000136823F00103136021680B68D8073CD4B6
:101A40000B68324DA0691D40D4E901231343E268BD
:101A500013432269134362691343E2690343134347
:101A6000226A1343626A042A43EA050302BFD4E9E7
:101A70000B5635432B430B604B69042A23F00703B5
:101A800043EA02030BD1A26AE56A13433DB1F8B9F8
:101A9000012A2DD001D3022A01D1EA012BD44B61B6
:101AA0002046FFF7A1FFE26D3F23934083600020B3
:101AB0000123606584F8353009E0FFF727FF401BFC
:101AC0000528B9D920236365032084F8350070BD4B
:101AD000B0F5005F13D1032AE1D801A050F822F03D
:101AE000F71A00089B1A0008F71A0008F11A0008F4
:101AF000B5F1C07FD3D1402363650120E5E7022A19
:101B0000F9D9032AC8E70120E1E700BF3F8010F0C0
:101B100038B5054620B390F83540E4B2022C1DD00C
:101B200003681A6822F0010200241A6021221C6056
:101B30005C609C60DC601C615A61FFF755FFEA6DD8
:101B40003F239340C5E90F44C5E91144C5E9134457
:101B500083606C6585F8344085F83540204600E0A8
:101B6000012038BD70B50446856DFFF7CFFE94F8AF
:101B70003530022B064606D080236365002384F8A7
:101B80003430012070BD23681A6822F016021A60F2
:101B90005A6922F080025A61226C0AB9A26C1AB109
:101BA0001A6822F008021A601A6822F001021A600C
:101BB0002368186810F0010009D1E26D3F239340BB
:101BC000AB60012384F8340084F83530DAE7FFF79E
:101BD0009DFE801B0528EBD920236365032000238D
:101BE00084F8343084F83500CCE790F83530022B97
:101BF00003D080234365012070470268052380F8E5
:101C00003530136823F00103136000207047000093
:101C1000F7B5002301935C4B856D1F68C36D2E687B
:101C200008229A40324204460CD0016808684007F6
:101C300008D5086820F004000860AA60626D42F0D0
:101C40000102626501229A40324208D02168496946
:101C5000090641BFAA60626D42F002026265042279
:101C60009A40324208D021680968880741BFAA60BB
:101C7000626D42F00402626510229A40324210D036
:101C80002368196809070CD5AA601A68500337D56C
:101C90001B68190301D4236C00E0A36C0BB1204630
:101CA0009847E16D20228A4032423AD02368186872
:101CB000C60636D5AA6094F83520052A1A6827D1B9
:101CC00022F016021A605A6922F080025A61226CD0
:101CD0000AB9A26C1AB11A6822F008021A603F23EE
:101CE0008B40AB60002384F83430012384F8353016
:101CF000236D002B45D0204603B0BDE8F0401847C7
:101D00001A68D2055EBF1A6822F008021A60C2E79C
:101D1000500327D51B68190331D4636C0BB12046DF
:101D20009847636D6BB3636DDA0719D50523226895
:101D300084F83530136823F0010313604FF4165311
:101D4000B7FBF3F7019B0133BB42019302D8136841
:101D5000DB07F7D4002384F83430012384F83530CE
:101D6000E36CC6E71A6812F4807208D1196821F092
:101D700010011960012384F8342084F83530E36BB6
:101D8000CCE703B0F0BD00BF380000202DE9F041E2
:101D900007460D4614461E46FFF7B8FD80463B68D1
:101DA0005A6FD2070AD544EA0621069C41EA04414B
:101DB00041EA8511D9660020BDE8F081FFF7A6FD54
:101DC000A0EB0800B0F57A7FE9D90320F4E770476B
:101DD00073B50D460446002800F0A680437C0BB97D
:101DE000FFF7F5FF03236374002300932368D3F800
:101DF000302442F08072C3F83024D3F8303403F03A
:101E000080730093009BFFF781FD06462268D2F89D
:101E10000C34D90477D5D2F8303423F45E3323F46C
:101E2000FE73C2F83034D5E90003DB0243EA8003D5
:101E3000A868D2F8301443EA00430B43C2F83034A8
:101E400000230193D2F8303443F00103C2F8303458
:101E5000D2F8303403F001030193019BFFF756FDE4
:101E600006462368D3F80C24D20556D5D3F8A02013
:101E7000286842F00602C3F8A020D3F8942022F08C
:101E80000302C3F894206268D3F8941042F0010270
:101E90000A43C3F89420D3F8A420E16822F0030297
:101EA000C3F8A420D3F8A4200A43C3F8A4209A6856
:101EB000A16822F0FF029A609A680A4369689A60F2
:101EC00000291A4A08BF01214A43A96801F0030109
:101ED0008A404FF4FA514143B2FBF1F2D3F818149F
:101EE00021F03F01C3F81814D3F8181400200A4356
:101EF000C3F81824C3F8C400C3F8C8000123606104
:101F0000A061637407E0FFF701FD801BB0F57A7FE5
:101F10007FF67CAF032002B070BDFFF7F7FC801B9B
:101F2000B0F57A7F9DD9F5E70120F4E700093D007F
:101F3000704730B5054685B0002842D0032343746E
:101F4000002403680094D3F8042422F00802C3F8A4
:101F50000424D3F8042402F008020092009A0194A9
:101F60005A6822F001025A605A6802F00102019296
:101F7000019AD3F8A02022F00602C3F8A020029410
:101F8000D3F8302422F00102C3F83024D3F83024EF
:101F900002F001020292029A0394D3F8302422F054
:101FA0008072C3F83024D3F8303403F08073039385
:101FB000039BFFF7BDFF6C612C746C74204605B069
:101FC00030BD0120FBE770470368D3F80C24D1072C
:101FD00010B5044608D5D3F80824D20704D5012249
:101FE000C3F8102405F0EEF82368D3F80C24910709
:101FF00009D5D3F80824920705D50222C3F8102486
:10200000204605F003F9A369002B4ED02168D1F8D2
:10201000BC20D1F8C430D1F8C0001A40D1F8C83083
:1020200091B2034019B1616941F00101616112F49B
:10203000F81F1EBF626942F002026261D80742BF08
:10204000626942F004026261990742BF626942F02C
:102050000802626113F00C0F1EBF626942F01002A9
:102060006261DA0642BF626942F02002626198064C
:1020700042BF626942F040026261590642BF626932
:1020800042F0800262611A0642BF626942F48072C5
:10209000626113F4F85F1EBF636943F40073636108
:1020A000636913B12046FFF78EFF10BD037C012B3F
:1020B00030B56AD003680C685A6B42F001025A636B
:1020C000D3F8002422F00102C3F80024D3F800243E
:1020D00042F00102C3F80024DA6822F00302DA6059
:1020E000DA682243DA605A6922F007025A61D1E9BC
:1020F00006522A434D695C692A4322435A611A6990
:102100004D6822F00F021A611C692C431C61D3F840
:10211000004424F00E04C3F80044D3F800248C6873
:1021200042EA4502C3F800245A6E120C12045A66A1
:102130005A6E22435A66D3F8002422F0F002C3F804
:102140000024D1E903252A434D6AD3F800442A43E9
:102150000D6A896A2A432243C3F800249A6E22F04A
:1021600001029A669A6E0A439A66D3F8082442F0EE
:102170000102C3F80824D3F8082442F00202C3F88D
:10218000082400230374184630BD0220FCE7000039
:10219000037C012B30B52AD00268164B946E234085
:1021A0009366D1E900352B438D68946E2B43CD683F
:1021B0002B430D692B434D692B438D692B43CD690F
:1021C0002B430D6A2B434D6A2B438D6A2B43CD6AFB
:1021D000096B2B4323439366936E23F002039366AC
:1021E000936E0B43936600230374184630BD0220A0
:1021F000FCE700BFFF80F0FE037C012B0BD00368DF
:10220000DA6A22F01F02DA62DA6A1143D962002325
:1022100003741846704702207047037C012B82B07C
:102220001CD0026800230093516841F00101516005
:10223000516801F00101009100990193D2F8041452
:1022400041F00801C2F80414D2F80424037402F027
:1022500008020192019A184602B070470220FBE77B
:10226000037C012B1FBF0268D2F8043443F004033F
:10227000C2F804341DBF00230374184602207047BF
:1022800037B5057C012D044609D001250574069D4E
:102290000095FFF77BFD0023237403B030BD0220BF
:1022A000FBE72DE9F84F1C46037C012B06460F4641
:1022B0001546DDE90A9852D001230374FFF726FB87
:1022C00083463268536F13F0010A19D0032C20465D
:1022D0004FF0000328BF032083421DD1E01AC2F84B
:1022E0007090434410BB0134230245EA87159BB22A
:1022F00024021D4304F47F042C43D466307409E0A7
:10230000FFF704FBA0EB0B00B0F57A7FD9D986F874
:1023100010A00320BDE8F88F18F8031001334FEA2E
:10232000C30C01FA0CF149EA0109D5E704284FF082
:10233000000C8646614628BF4FF0040E13F801805A
:102340004FEAC109013108FA09F88E454CEA080C38
:10235000F4D1C2F870C0A0EB0E007344C2E70220B3
:10236000D8E700002DE9F04F85B00B68DFF8C48195
:102370006E4ADFF8C491019300230124019D9C4023
:102380002540AC4240F0B8804C6824F0100C4FEA75
:10239000430E03260CF1FF3706FA0EF6012F6FEA03
:1023A000060611D8876807EA060ACF6807FA0EF70B
:1023B00047EA0A078760476827EA050AC4F3001757
:1023C0009F4047EA0A074760C76807EA060A8F681E
:1023D00007FA0EF747EA0A07BCF1020FC76016D1E9
:1023E0004FEAD30A00EB8A0A03F0070BDAF82070F1
:1023F0004FEA8B0B4FF00F0C0CFA0BFC27EA0C0C7E
:102400000F6907FA0BF747EA0C07CAF8207007684C
:102410003E4004F0030707FA0EFE4EEA0606066089
:10242000E60069D54FF0000BCDF80CB0D8F8447039
:102430003F4E47F48047C8F84470D8F8447007F41A
:1024400080470397039F23F0030707F1804707F5B1
:102450009C3703F0030ED7F808A04FEA8E0E4FF01A
:102460000F0C0CFA0EFCB0422AEA0C0C4BD006F50D
:102470008066B04249D006F58066B04247D006F586
:102480008066B04245D006F58066B04243D04845EC
:1024900043D006F50066B04241D006F58066B042F2
:1024A0003FD006F58066B0423DD006F58066B0426A
:1024B00014BF0A26092606FA0EF646EA0C06BE6086
:1024C0001668EF4314F4803F0CBF3E402E43166065
:1024D000566814F4003F0CBF3E402E435660966889
:1024E00014F4801F0CBF3E402E439660D668A402B1
:1024F00054BF3E402E43D6600133102B7FF43DAFD6
:1025000005B0BDE8F08F5E46D5E70126D3E7022689
:10251000D1E70326CFE70426CDE70526CBE706263D
:10252000C9E70726C7E70826C5E700BF003C01400A
:102530000000024000380240001402400AB18161EC
:1025400070470904FBE700002DE9F04F066885B0ED
:102550000546304602F09EFC012840F0E4802868E1
:1025600002F094FC002800F0DE80286802F08EFC67
:10257000840248BF2B68286844BF4FF400125A6198
:1025800002F084FCC00248BF2B68286844BF4FF4A7
:1025900080125A6102F07AFC410148BF2B6828681A
:1025A00044BF4FF080625A6102F070FC820748BF5E
:1025B0002B68286844BF02225A6102F067FC83003E
:1025C0000ED52B684FF000525A61D6F84034DF0721
:1025D00006D4284605F0C2F90121286802F05EFC05
:1025E000286802F053FCC4013CD52C68D4F8403470
:1025F0000293D4F840340393039B23F02E030393F8
:10260000029B980709D5029BD90702D5284605F0F9
:10261000A1F9039B43F002030393029B1A0717D50A
:10262000039B43F008030393029B5B0740F1868002
:10263000A96902297AD1029B286803F4C023B3F563
:10264000802F18BF012102F029FC284605F08AF9E5
:10265000029B9F0642BF039B43F020030393039B0F
:10266000C4F84034286802F011FC040705D5284658
:1026700005F06CF92B6808225A61286802F006FC04
:10268000800112D5286802F025FC06F5A0630090B1
:102690004FF00009019328274FF00208AB68286823
:1026A0004B454FD84FF000734361286802F0EEFBB2
:1026B000C30638D52C68A36923F01003A361266AEA
:1026C000C6F34342022A29D1C6F30A18B8F1000F13
:1026D00024D006F00F06282707FB0657796CE9B1CE
:1026E0004246204602F0C4FB7B6C43447B64FB6C97
:1026F0004344FB6404F5A0647301E2181169B14A14
:102700000A405AB1E25822F0804242F00042E250C0
:1027100097F8503083F0010387F850302A689369A6
:1027200043F01003936105B0BDE8F08FEB68012B17
:1027300004BF4EF66022C4F8042486E7284605F05C
:1027400015F985E7009A09F00F0322FA03F3D90778
:1027500040F195804FEA4913019A5FFA89F6D15802
:1027600000F5A06B4FEA461A0BEB0A0411F4004F78
:10277000A16800F01D814A0713D50421A160E1681A
:1027800041F00201E160A16888054AD5E368286844
:1027900043F00203E360314602F0A1FB4FF4007303
:1027A000E6E0A168CB0510D54FF48071A16007FB6E
:1027B00006514FF0070C81F85DC0E16841F002015D
:1027C000E160314602F08BFBDDE7A168890602D5A6
:1027D0002021A160D7E7A1680A070ED5E16841F082
:1027E0000201E16007FB06514FF0050C81F85DC066
:1027F0001021A1600821A160E3E7A1684B05C2D5C3
:10280000E16841F00201E160314602F068FB10210D
:10281000A16007FB0651082081F85D004FF480613C
:10282000D7E7A168C90748D5296949B107FB065C04
:102830002069DCF84810C0F31200091ACCF84C10DB
:1028400007FB06510123002081F85D308865A360F5
:1028500091F83F2012F0FD0F14D1E368286843F08F
:102860000203E360314602F03AFB1023A36007FB4A
:10287000065696F8503083F0010386F8503009F17F
:1028800001090BE7032A0DD15BF80A0040F0005064
:102890004BF80A001A4681F85C303146284605F0AC
:1028A00069F8E4E7012AE2D191F8503081F85C2020
:1028B00083F0010381F85030EFE7A1688A0742D521
:1028C000E16807FB065021F00201E16090F85D101D
:1028D000012902D180F85C102AE00529FAD00629E6
:1028E00001D008290FD107FB0651886D013003285C
:1028F000886581BF00208865042081F85C0098BF4E
:1029000081F85C8003E003290AD180F85C805BF8E1
:102910000A1021F0804141F000414BF80A1007E015
:10292000072905D1836D01338365042380F85C306A
:1029300007FB0653C4F8088093F85C20314628460C
:1029400005F018F89BE7A168286811F0800111D004
:10295000E36807FB065243F00203E360936D013323
:102960009365062382F85D30314602F0B8FA802381
:10297000A36084E7A368DB0681D507FB065292F8C3
:102980003F30032B09D19165E36843F00203E36014
:10299000314602F0A4FA1023EAE713F0FD03FAD15E
:1029A00093652B69002BF6D1032382F85D30EBE7AA
:1029B00011F0040C08D00423A360E36843F0020381
:1029C000E3605CE70000F81FA16811F0200114D05B
:1029D0002023A36007FB065393F83D20012A7FF4D0
:1029E0004EAF83F83DC083F85C80E36843F0020398
:1029F000E360314602F073FA41E7A3685A0611D545
:102A000007FB0653042283F85D20012283F83D2052
:102A10009965E36843F00203E360314602F05FFA30
:102A20004023A5E7A16811F4007105D0E36843F0E5
:102A30000203E3603146AFE6A368DB070FD5E26827
:102A400007FB065A42F00202CAF85810E26031460B
:102A500002F045FA0122A2608AF85D200FE7A16822
:102A600009070ED50823A360E36843F00203E3607F
:102A7000314602F034FA07FB0656052386F85D302E
:102A8000FDE6A168CA0614D507FB065300229A6525
:102A9000032283F85D2093F83D20002A7FF474AF71
:102AA00093F83C20002A7FF46FAF012283F83D2089
:102AB0006AE7A1680B060CD5E36843F00203E36004
:102AC000314607FB065602F00AFA062386F85D3007
:102AD0004DE7A16849050FD5E36843F00203E360C1
:102AE000314602F0FCF91023A3604FF48063A36029
:102AF00007FB06560823C1E7A1688A077FF5BFAE2A
:102B0000E16807FB065021F00201E16090F85D10DA
:102B100001290ED190F83F3080F85C10023B012B68
:102B20003FF606AF90F8513083F0010380F8513042
:102B3000FEE6032902D180F85C80F9E60429FAD088
:102B400005293FF4C7AE06293FF4CDAE08297FF42E
:102B5000EFAEC8E690F8B832012B10B5044609D0A4
:102B6000012380F8B832006802F00BFA002084F8E4
:102B7000B80210BD0220FCE701684B6913F48063C2
:102B80004FF0000210D06FF480634B61202302638A
:102B900080F83D3080F83E20036C80F83C2043F004
:102BA0000403036401207047184670472DE9F04183
:102BB0000446164698468FB22568686937EA0000D1
:102BC00017D06B695A0516D52B6843F400732B6038
:102BD0006FF480636B6120220023236384F83D201F
:102BE00084F83E30226C42F00402226484F83C30C7
:102BF0000120BDE8F081731CDFD0FEF787FEA0EB5B
:102C00000800B04201D8002ED6D100232022236331
:102C100084F83D2084F83E30226C42F02002E4E744
:102C200070B504460D46164623685B695B0701D5FF
:102C3000002070BD2046FFF79FFFA8B96A1CF3D0A3
:102C4000FEF764FE801BA84201D8002DECD10023C2
:102C50002022236384F83D2084F83E30226C84F8DF
:102C60003C3042F0200222640120E2E770B50446C5
:102C70000D4616462068436913F0400301D000203A
:102C800010E04269D2060ED56FF010024261202298
:102C9000236384F83D2084F83E30226C226484F85B
:102CA0003C30012070BDFEF731FE801BA84201D8E8
:102CB000002DDFD100232022236384F83D2084F8F7
:102CC0003E30226C42F02002E8E72DE9F843089EEE
:102CD000044690461F464FEA11498DB22168B9F16A
:102CE000010F0CBF4B698B6935EA03030CBF01234D
:102CF0000023984501D0002016E07B1CEFD0FEF7A2
:102D000005FE801BB84201D8002FE7D10023202206
:102D1000236384F83D2084F83E30226C84F83C30F4
:102D200042F0200222640120BDE8F88370B5044619
:102D30000D46164623685B691B0601D5002070BD51
:102D40002046FFF719FFA8B96A1CF3D0FEF7DEFD95
:102D5000801BA84201D8002DECD100232022236340
:102D600084F83D2084F83E30226C84F83C3042F0F8
:102D7000200222640120E2E72DE9FF4115460268A6
:102D80000B9E9846136843F4807313600F460A9BAA
:102D9000009600224FF001110446FFF796FF2368CA
:102DA00038B11B68DB0502D54FF4007323640320A0
:102DB0000AE007F0FE071F610A9A194933462046C8
:102DC000FFF7F4FE18B1012004B0BDE8F0812368DC
:102DD00003905A6903929B69039332460A99039BB5
:102DE0002046FFF7A3FF40B1236C042B01BF2268EC
:102DF000136843F400731360E5E7B8F1010F23682B
:102E000002D1EDB21D61DFE72A0A1A610A99324642
:102E10002046FFF78BFF0028E6D12368F1E700BFCB
:102E2000020001002DE9FF41984603680B9D1646FC
:102E30001A6842F480621A601A6842F480721A605A
:102E40000F460A9B009500224FF001110446FFF740
:102E50003CFF236848B11B68DB0502D54FF40073C3
:102E60002364032004B0BDE8F081FFB207F0FE0246
:102E70001A612A490A9A2B462046FFF797FE08B1A5
:102E80000120EFE7236803905A6903929B6903933B
:102E90002A460A99039B2046FFF748FF40B1236C5E
:102EA000042B01BF2268136843F400731360E7E743
:102EB000B8F1010F236825D1F6B21E612A460A999E
:102EC0002046FFF733FF02460028E8D121680B684F
:102ED00043F480730B6020460A9B00954FF001116C
:102EE000FFF7F3FE23680028B5D147F001071F6103
:102EF0000A9A0A492B462046FFF758FE003018BFB1
:102F00000120AFE7320A1A610A992A462046FFF7E4
:102F10000DFF0028C3D12368CEE700BF02000100E7
:102F20007047000070B5044608B9012070BD90F8E4
:102F30003D3003F0FF021BB980F83C20FFF7F0FFA3
:102F4000242384F83D3023681A6822F001021A60B5
:102F50001A6842F400421A601A6822F400421A60A9
:102F600001F02EFA6368414A93424DD8404A90429C
:102F7000DBD922683F495568B0FBF1F125F03F05E8
:102F80000D435560156A25F03F0501312943116253
:102F9000D169364D21F44F41AB4221F0FF0100F1E0
:102FA000FF3048D85B00B0FBF3F0431CC3F30B03C6
:102FB000042B38BF04230B43D361D4E907301168D5
:102FC000034321F0C0010B4313609168D4E903036C
:102FD00021F40341034321F0FF010B439360D4E943
:102FE0000530D168034321F0FF010B43D360136820
:102FF00043F00103136000202023206484F83D3057
:10300000206384F83E0091E71B4A90428DD92268E4
:10301000184E5568B0FBF6F625F03F053543556070
:10302000156A4FF49671714325F03F054FF47A7697
:10303000B1FBF6F1A9E7A56855B903EB4303B0FB73
:10304000F3F0431CC3F30B036BB143F40043B2E74B
:1030500019256B43B0FBF3F0431CC3F30B0313B10F
:1030600043F44043A7E70123A5E700BFA086010082
:103070007F841E0040420F00FF083D00704710B5DE
:10308000044698B10268242380F83D30136823F089
:1030900001031360FFF7F2FF0020206484F83C0076
:1030A00084F83D00206384F83E0010BD0120FCE759
:1030B0002DE9F743044699460F4690460C9EFEF7CD
:1030C00025FC94F83D30202B054603D0022003B0A8
:1030D000BDE8F0830090192301223B492046FFF709
:1030E000F4FD0028F2D194F83C30012BEED00123FE
:1030F00084F83C3023681A68D1075EBF1A6842F032
:1031000001021A601A6822F400621A60212384F80E
:103110003D30402384F83E30002323640A9B6362E1
:10312000BDF82C306385638D2385284BE362CDE9A0
:1031300000654B46424639462046FFF71DFE0028F3
:103140002AD00120C3E7FFF7F1FD40B1236C042B27
:1031500001BF2268136843F400731360F1E7636AE8
:1031600027681A4612F8011B39616262628D218D4F
:10317000013A92B262857A69481E80B25207208570
:103180000AD548B15A783A6102336362638D013BD4
:1031900002399BB221856385238D2A46314620461C
:1031A000002BD0D1FFF73CFD0028CFD12268136857
:1031B00043F400731360202384F83D3084F83C000E
:1031C00084F83E0083E700BF020010000000FFFF0C
:1031D0002DE9F043044687B099460D469046109F6E
:1031E000FEF794FB94F83D30202B064604D00225D0
:1031F000284607B0BDE8F0830090192301227749E3
:103200002046FFF762FD0028F1D194F83C30012BF5
:10321000EDD0012384F83C3023681A68D0075EBFE4
:103220001A6842F001021A601A6822F400621A60F9
:10323000222384F83D30402384F83E300023236469
:103240000E9B6362BDF83C306385638D2385644BC0
:10325000E3622946CDE900764B4642462046FFF719
:10326000E1FD054608B10125C2E7228D236892B928
:1032700002905A6902929A690292029A1A6842F47A
:1032800000721A60202384F83D30002384F83E3019
:1032900084F83C30ACE7012A2CD11A6822F4806211
:1032A0001A6003905A6903929A690392039A1A6802
:1032B00042F400721A60DFF82C81238D002BE1D0DC
:1032C000032B6ED8012B2DD1324639462046FFF70D
:1032D000CDFC0028C7D123681A69636A1A70636A33
:1032E00001336362238D013B2385638D013B9BB2D8
:1032F0006385E2E7022A0ED11A6822F480621A601E
:103300001A6842F400621A6004905A6904929B6938
:103310000493049BCFE705905A6905929B69059336
:10332000059BC8E7022B00963B464FF00002414642
:10333000204619D1FFF7C9FC002894D123681A68E8
:1033400042F400721A601A69636A1A70626A531C46
:103350006362238D013B2385638D013B9BB26385B3
:1033600023681B695370BAE7FFF7AFFC02460028D9
:103370007FF479AF2368196821F4806119601969B5
:10338000636A1970636A009601336362238D013B9F
:103390002385638D013B9BB2638541463B462046B6
:1033A000C8E7324639462046FFF760FC00287FF424
:1033B0005AAF23681A69636A1A70626A531C63629F
:1033C000238D013B2385638D013B9BB2638523687D
:1033D000596949077FF571AFC3E700BF02001000CC
:1033E0000000FFFF0400010090F83D0070472DE948
:1033F000F043D20104684F68E568D1F800C0D1F805
:1034000018908432A3180CF10106586800F470403B
:103410005860E068C5F30B45C0F30B4030443D44B1
:1034200040EA05405860E068CD68C0F30A000544F2
:10343000986800F470409860E6688868C6F30A06E9
:103440000130304440EA0540986018690E6920F068
:10345000070018614FF0000E1E619D6991F832005F
:1034600091F83180C3F818E091F8305045EA0965C9
:1034700045EA082545EA00459D61586920F0FF00AE
:10348000586148695861D86920F4E06020F007006D
:10349000D861D1E907500543DD61986A486AC3F8ED
:1034A00028E098621EB3012E23D0B01E022822D934
:1034B000072E0CBF02200120DD6A05F0E025DD6249
:1034C0008D6AC96AA7EB0C0745437843033040EA8D
:1034D0000540D862186B20F4FF6020F007001863E5
:1034E0001963A35843F00103A350BDE8F0830420FF
:1034F000E2E70320E0E70220DEE7704738B5044644
:10350000002863D090F8A13003F0FF021BB980F8C7
:10351000A020FFF7F2FF022384F8A13023689A6904
:1035200022F070429A61D4E901200243E06899696F
:103530000243206902430A439A619A6824496069F8
:103540000A409A609A6842EA0042A06902439A607F
:10355000DA68E0690A40DA60DA6842EA0042206A22
:103560000243DA601A69606A0A401A611A6942EA1B
:103570000042A06A02431A615A69114059615A69AE
:10358000E16A42EA0142216B0A435A61D96A94F81E
:10359000360094F8355001F07F41D962D96A94F829
:1035A00034200A4342EA052242EA0042DA625A6BB8
:1035B00042F006025A639A6942F001029A610020C1
:1035C0000123C4F8A40084F8A13038BD0120FCE731
:1035D00000F800F0704710B50446FFF7FBFF00202D
:1035E000C4F8A40084F8A00084F8A10010BD7047BE
:1035F00070477047036870B59E6B5D6B7207044639
:1036000014D5690712D55A6B22F004025A630422BA
:10361000DA63D0F8A43043F00103C0F8A4300023EB
:1036200080F8A12080F8A030FFF7E1FFB20716D59F
:10363000AB0714D523685A6B22F002025A630222A8
:10364000DA63D4F8A4301343C4F8A430042384F814
:10365000A130002384F8A0302046FFF7C8FFF00710
:1036600010D5E9070ED523685A6B22F001025A6380
:103670000122DA63002384F8A12084F8A0302046D8
:10368000FFF7B6FF320711D52B070FD523685A6B0A
:1036900022F008025A630822DA63012384F8A13079
:1036A000002384F8A0302046FFF7A3FF70BDF8B5D3
:1036B00090F8A030012B06468C4696464FF002004B
:1036C0001DD034240D4686F8A10004FB02640FCD02
:1036D0000127383486F8A0700FC40FCD0FC40FCD6A
:1036E0000FC42B682360304672466146FFF77FFEA9
:1036F000336800205F6286F8A17086F8A000F8BDEC
:1037000090F8A030012B10B54FF0020313D00468DD
:1037100080F8A13004EBC212D2F8903003F07F435E
:10372000C2F890300123C2F89010636280F8A13093
:10373000002380F8A030184610BD90F8A030012B6F
:103740004FF002030FD0C90180F8A1308431036823
:103750005A5842F002025A5001225A62002380F85D
:10376000A12080F8A0301846704790F8A030012BB7
:103770004FF002030FD0C90180F8A13084310368F3
:103780005A5822F002025A5001225A62002380F84D
:10379000A12080F8A03018467047F8B590F8A040F6
:1037A000012C05469C464FF002041DD080F8A14034
:1037B00034245C4306190127336E80F8A070B1638E
:1037C0001944C6E90F12716E1144716404F1380195
:1037D00001446246FFF70BFE2B6800205F6285F80C
:1037E000A17085F8A000F8BD2046FCE790F8A03055
:1037F000012B70B54FF00203044615D080F8A130BC
:1038000034235343C618012580F8A050F16403F116
:1038100038010144FFF7EBFD236800205D6284F866
:10382000A15084F8A00070BD1846FCE790F8A030C5
:10383000012B70B54FF00203044615D080F8A1307B
:1038400034235343C618012580F8A050F16503F1D5
:1038500038010144FFF7CBFD236800205D6284F846
:10386000A15084F8A00070BD1846FCE790F8A03085
:10387000012B30B54FF002032DD0342404FB020499
:1038800080F8A130A46C44B3012C28D0A51E9D4221
:1038900002D9072C18BF0123D20102F18404026867
:1038A00022444B43D46A24F0FF5424F4F814D46225
:1038B0000C4C656A45F001056562D56A45EA03432B
:1038C000D362636A43F001036362012380F8A1308D
:1038D000002380F8A030184630BD0423DCE7032322
:1038E000DAE700BF006801407047000037B50023E9
:1038F0000193184B184C1A6C42F080521A641B6CDE
:1039000003F080530193019B144B01221A60FDF7D1
:10391000FDFF05466368DA030BD5114B0E4C0122FF
:103920001A60FDF7F3FF054663689B030AD5002084
:1039300006E0FDF7EBFF401BB0F57A7FEAD90320E4
:1039400003B030BDFDF7E2FF401BB0F57A7FEBD945
:10395000F5E700BF003802400070004040000E4212
:1039600044000E422DE9F0474E6A3EB1B2F1406F7D
:103970001FBF8B6A046803F1FF332361D1F818A0DD
:10398000D1E9077CBAF1000F4ED04B690568D1F838
:103990000080486B46EA0A0AD1E90B494FEA834E98
:1039A0004AEA020ABCF1000F26D08B68EB610E696F
:1039B0004CEA0A0CA7B148EA0703234343EA090388
:1039C0000343C8683343034343EA0E0343EA0C034B
:1039D000B2F1406F6B6101D04B68AB61BDE8F0871D
:1039E00048EA040343EA09030343334343EA0E036B
:1039F00043EA0C036B61F1E767B148EA070323432D
:103A000043EA09030343C868034343EA0E0343EA56
:103A10000A03DDE748EA040343EA0903034343EAF0
:103A20000E0343EA0A03E5E7BCF1000F28D004685F
:103A30008B68E36146EA0C034E690869D1F834C02B
:103A400043EA0205B604D1E90B8387B1384340EA63
:103A500008000343C86843EA0C03034333432B4382
:103A6000B2F1406F6361B9D04B68A361B6E740EA39
:103A70000800034343EA0C0333432B436361ADE780
:103A8000AFB1CC6A006846EA0703134323430C6BCB
:103A900023434C6B2343CC6823434C69B2F1406F02
:103AA00043EA8443436199D04B68836196E7002ED3
:103AB00094D0CB6A006833430E6B1A4332434E6B8B
:103AC0004B69324342EA8342426187E72DE9F04184
:103AD000069D04460F461646984621688A683A4273
:103AE00014BF01220022B24201D1002011E06B1C60
:103AF000F4D0FDF70BFFA0EB0800A84201D8002D81
:103B0000EBD1042384F84130636C43F00103636418
:103B10000120BDE8F081704737B50446FDF7F6FE99
:103B20000546002C46D094F8412002F0FF033AB934
:103B300084F840302046FFF7EEFF41F28833A3645B
:103B40002068A1680268A36C013922F4F85242EAA5
:103B5000012202602021009300222B462046FFF71D
:103B6000B5FF10BBE569E36822682B43256A11683D
:103B70002B43656821F07F4143EA056321F0D001C2
:103B80000B431360D4E905310B432169556843EABF
:103B90000143094929400B435360136843F0010373
:103BA00013600123606484F84130002384F84030BE
:103BB00003B030BD0120FBE7FEF8E0FF704710B511
:103BC000044668B10268136823F001031360FFF72D
:103BD000F5FF0020606484F8410084F8400010BDC7
:103BE0000120FCE72DE9F34704468A469146FDF79C
:103BF0008DFE94F84030012B804635D0012384F8A7
:103C0000403094F84160F6B29E424FF0020729D14D
:103C100000226264034684F84170CDF800902021B0
:103C20002046FFF753FF0546A8B9024651462046F5
:103C3000FFF798FEDAF824305BB9CDF800904346E0
:103C4000324639462046FFF741FF054618B923683A
:103C5000DF6084F84160002384F84030284602B0D9
:103C6000BDE8F0873D46F6E70225F7E72DE9F74383
:103C70000446984689461646FDF748FE94F84030BB
:103C8000012B074642D0012384F8403094F841507C
:103C9000EDB29D4238D1422300226264CDF800800B
:103CA00084F84130202103462046FFF70FFF28BB50
:103CB000236832689A6272685A62B268DA62196876
:103CC000326921F4400142F480020A431A60F36829
:103CD000C9F828304FF0006249462046FFF742FEFF
:103CE000CDF800803B462A4608212046FFF7EEFE2D
:103CF00020B923680822DA6084F84150002384F850
:103D0000403003B0BDE8F0830220F7E70220F8E777
:103D1000F7B5044617460E46FDF7F8FD94F8402027
:103D2000012A034632D0012284F8402094F8412031
:103D3000012A29D100228221626484F84110A16CF9
:103D4000009120462021FFF7C1FE0546B0B9236847
:103D500079681A6822F008020A4308291A6007D114
:103D60003A681A631022DA601A6842F480121A6004
:103D70004FF0406231462046FFF7F4FD002384F8FF
:103D80004030284603B0F0BD0225F7E70225F8E7EA
:103D90007047806B08B500238363C36290F841309D
:103DA000082B0BD103680222DA601A6842F4003251
:103DB0001A601A6842F002021A6008BD012380F8F6
:103DC0004130FFF7E5FFF8E77047704770477047ED
:103DD00070477047704737B50446FDF797FD0546B5
:103DE00094F8410010F0020034D0002384F84030F1
:103DF00023681A6852070BD51A68E06B22F0040298
:103E00001A60FDF7AFFE18B1636C43F004036364FE
:103E10002268136843F002031360A36C009301222D
:103E20002B4602212046FFF751FE98B92368022253
:103E3000DA60A36C009302462B4620212046FFF750
:103E400045FE38B92268536923F04063536101236A
:103E500084F8413003B030BD2DE9F3410446884673
:103E60001746FDF753FD94F84030012B064650D01D
:103E7000012384F8403094F841002568C0B298428C
:103E800045D100236364B8F1000F3BD0122384F8BE
:103E900041302B690133E3622B69C4F8248001337C
:103EA000A3626B6923F040636B61E36AB3B9009767
:103EB0003346012202212046FFF708FE28B9236875
:103EC0000222DA602046FFF786FF012384F84130A2
:103ED000002384F8403002B0BDE8F08100973346FB
:103EE000012204212046FFF7F1FD0028EDD1636A8D
:103EF0001B7885F82030636A01336362E36A013B13
:103F0000E362D2E7636C43F008036364E0E70220F6
:103F1000DEE70220DFE72DE9F34104461746884635
:103F2000FDF7F4FC2568AA6994F84030012B064699
:103F300052D0012384F8403094F84100C0B2984236
:103F400048D100236364B8F1000F3ED0222384F8E7
:103F500041302B690133A3632B69C4F830800133EE
:103F600063636B6923F0406343F080636B61AA6114
:103F7000A36BB3B900973346012202212046FFF715
:103F8000A5FD28B923680222DA602046FFF723FF47
:103F9000012384F84130002384F8403002B0BDE8AA
:103FA000F08100973346012206212046FFF78EFD5F
:103FB0000028EDD1236B95F820201A70236B013374
:103FC0002363A36B013BA363D2E7636C43F0080355
:103FD0006364E0E70220DEE70220DFE790F841308B
:103FE000990710B504461DD5002380F840300823FA
:103FF00080F8413003681A6822F4F8121A601A68CF
:10400000520711D51A68C06B22F004021A600C4BDB
:104010000365FDF7EAFD28B1012384F8413020460D
:10402000FFF7D2FE002010BD0222DA601A6842F4C7
:1040300000321A601A6842F002021A60F2E700BF0A
:10404000933D000838B5036899681A680446480724
:1040500034D5550332D594F84120122A14D1226860
:104060009168480703D42046FFF7B2FE38BDE16AE5
:10407000F9B1626A127883F82020626A01326262C2
:10408000E26A013AE262EAE794F84120222AEAD1A0
:10409000226891684907E6D5A16B51B1226B93F86C
:1040A00020101170226B01322263A26B013AA263CD
:1040B000EEE7136823F480231360D4E78D076ED5F1
:1040C00090036CD50222DA601A6822F4E0221A60AA
:1040D00094F84120122A16D11A68510709D51A6896
:1040E00022F004021A60E36B1A68136823F00103DC
:1040F00013602046FFF772FF012384F84130204609
:10410000FFF765FEB2E794F84120222A29D11A6808
:10411000520720D51A6822F004021A60E36B1A686D
:10412000136823F0010313602046FFF757FF0123B4
:1041300084F841302046FFF749FE97E7A26B002A3A
:10414000F2D0226B93F820101170226B013222639F
:10415000A26B013AA2632268926812F47C5FEDD1EF
:10416000E2E794F84120022A06D1012384F8413085
:104170002046FFF72AFE79E794F84120082A7FF4C9
:1041800075AF5A6922F040625A61012384F84130C8
:10419000636C2046002B3AD1FFF716FE66E70D0749
:1041A00011D510030FD50822DA601A68550206D51A
:1041B0001A6822F410221A60012384F84130204644
:1041C000FFF707FE52E7C80724D5D50322D50125FE
:1041D000DD601A6822F470221A60626C42F00202FA
:1041E00062641A6850070FD51A68E06B22F0040267
:1041F0001A600E4B0365FDF7F8FC00283FF436AF5C
:10420000636C43F00403636484F841502046FFF775
:10421000BFFD2BE7C9067FF529AFD2027FF526AF98
:104220001022DA602046FFF7D5FD1FE7933D000816
:10423000134908B58B6803F00C03042B03D0082B3B
:1042400003D0104800E0104808BD4A684B68496830
:1042500013F4800314BF0C480A48C1F3881118BF37
:10426000002302F03F02A1FB0001FBF7C9FF044B52
:104270005B68C3F3014301335B00B0FBF3F0E3E79A
:10428000003802400024F40000127A002DE9F041C9
:104290000D46044610B90120BDE8F081434B1A6871
:1042A00002F00F028A4228D321688F072DD4C80755
:1042B00040D43E4B1A6802F00F02AA4265D8226829
:1042C00051076BD4130707D5394A2169936823F442
:1042D000604343EAC1039360FFF7AAFF344B354ABA
:1042E0009B68C3F30313D35CD840334B1860334B44
:1042F0001868FCF7FDFA0020CEE7CAB21A701B68F6
:1043000003F00F038B42C6D1CEE7294B11F0040F07
:104310001EBF9A6842F4E0529A600E0742BF9A6844
:1043200042F460429A609A68A06822F0F002024368
:104330009A60BCE762681E4B012A1CD11B6813F40B
:10434000003FA8D01A4EB36823F003031343B360B1
:10435000FDF7DCFA41F288380746B368626803F07B
:104360000C03B3EB820FA4D0FDF7D0FAC01B40457D
:10437000F3D9032090E7911E01291B6802D813F09E
:10438000007FDEE713F0020FDBE7EAB21A701B686A
:1043900003F00F03AB427FF47EAF90E70449E0687F
:1043A0008B6823F4E05303438B608BE7003C0240AF
:1043B00000380240B55001083800002040000020BD
:1043C000044B054A9B68C3F38223D35C034A1068FD
:1043D000D840704700380240C5500108380000201E
:1043E0000F2303600B4B9A6802F0030242609A6845
:1043F00002F0F00282609A6802F4E052C2609B68A8
:10440000DB0803F4E0530361034B1B6803F00F0365
:104410000B60704700380240003C0240F7B502686C
:104420000446100608D5A849606BD1F88C3023F0FB
:1044300000630343C1F88C30D10508D5A249A06BB5
:10444000D1F88C3023F080530343C1F88C3012F044
:10445000430F72D1236813F00C0F00F0BF809B4D07
:10446000994E00232B60FDF751FA074633689A00F6
:1044700000F1F980226853071AD5D6F88830D6F8AB
:10448000881003F4403301F0E0410B43216943EA13
:104490008113A16943EA0163C6F88830D6F88C30ED
:1044A000616A23F4F853013943EA0123C6F88C30DA
:1044B000170719D58449D1F88830D1F8880003F45A
:1044C000403300F070600343206943EA8013E069E1
:1044D00043EA0073C1F88830D1F88C30A06A23F425
:1044E00040330343C1F88C30160617D5636BB3F124
:1044F000006F13D17449D1F88830D1F8882003F0C7
:10450000706302F0E0421343226943EA8213626956
:104510005208013A43EA0243C1F8883001232B6074
:10452000FDF7F4F9684D06462B68980058D4FDF75E
:10453000EDF9801B0228F7D94DE0654D624E00234E
:104540002B60FDF7E3F9074633681B013ED4216871
:10455000C80741BFD4E901231B0743EA8213C6F809
:1045600084308A0715D5584AE368D2F88400666813
:104570001B0600F0E04043EA86130343C2F8843090
:10458000D2F88C00236A20F01F00013B0343C2F8DD
:104590008C304B060AD5E36862681B0643EA821337
:1045A000A26843EA0273484AC2F8843001232B60B0
:1045B000FDF7ACF9444D06462B681F013FF54AAFA5
:1045C000FDF7A4F9801B0228F6D904E0FDF79EF957
:1045D000C01B0228B8D9032003B0F0BD18063DD493
:1045E0002368990630D500230193374B394D1A6C57
:1045F00042F080521A641B6C03F080530193019BBC
:104600002B6843F480732B60FDF780F906462B6816
:10461000D9052FD52C4D2B6F13F4407330D1E36A9D
:1046200003F44072B2F5407F274A48D1916823F0E5
:10463000704021F4F81120F4407001439160116F33
:10464000C3F30B030B431367206810F010001FBF68
:10465000214B94F830201A600020BDE7636BB3F162
:10466000006FBDD1FBE6FDF751F9C01B02287FF6B4
:10467000FDAEB0E7FDF74AF9801B0228C7D9AAE7CB
:10468000E26A02F440729342C9D02B6F134A0121AF
:10469000116023F44073002111602B672B6FDA0740
:1046A000BDD5FDF733F941F2883706462B6F9B07DE
:1046B000B5D4FDF72BF9801BB842F7D98BE7916889
:1046C00021F4F811BAE700BF0038024070004742F9
:1046D0006800474200700040E0114742400E4742E8
:1046E00003682DE9F341DD07044610D423689807D9
:1046F0005BD423681A0700F19D8023685B0700F1F3
:10470000BB80A269002A40F01C81002015E0A74B65
:104710009A6802F00C02042A07D09A6802F00C0290
:10472000082A0DD15B6859020AD5A04B1B689A0371
:10473000DCD56368002BD9D1012002B0BDE8F0813F
:1047400063689A4DB3F5803F11D12B6843F48033F1
:104750002B60FDF7DBF8954D06462B689B03C5D40F
:10476000FDF7D4F8801B6428F7D90320E5E7B3F5FB
:10477000A02F04D12B6843F480232B60E5E72A683F
:1047800022F480322A602A6822F480222A60002BD8
:10479000DFD1FDF7BBF806462B689F03A6D5FDF7D2
:1047A000B5F8801B6428F7D9DFE7804B9A6812F0D0
:1047B0000C0F07D09A6802F00C02082A11D15B682E
:1047C0005E020ED4794B1A68950702D5E268012A79
:1047D000B2D11A68216922F0F80242EAC1021A60D5
:1047E00087E7E268724BB2B101221A60FDF78EF8DA
:1047F0006E4D06462B68980707D52B68226923F073
:10480000F80343EAC2032B6073E7FDF77FF8801BD0
:104810000228EFD9A9E71A60FDF778F8634D06463C
:104820002B6899077FF565AFFDF770F8801B0228AC
:10483000F6D99AE762695F4B7AB101221A60FDF7F7
:1048400065F85A4D06466B6F9F073FF556AFFDF76B
:104850005DF8801B0228F6D987E71A60FDF756F845
:10486000524D06466B6F98077FF547AFFDF74EF840
:10487000801B0228F6D978E74C4B1A6C12F0805254
:1048800028D101921A6C42F080521A641B6C03F01A
:1048900080530193019B0126474D2B68D9051BD5F9
:1048A000A368424D012B27D12B6F43F001032B67E7
:1048B000FDF72CF83D4D074641F288382B6F9B07DA
:1048C00039D5002E3FF41DAF384A136C23F08053C6
:1048D000136416E70026DFE72B6843F480732B6030
:1048E000FDF714F807462B68DA05D9D4FDF70EF862
:1048F000C01B0228F7D938E7052B04D12B6F43F0F2
:1049000004032B67D0E72A6F22F001022A672A6F7F
:1049100022F004022A67002BCAD1FCF7F7FF41F20C
:10492000883807462B6F9807CBD5FCF7EFFFC01BE5
:104930004045F7D919E7FCF7E9FFC01B4045BDD951
:1049400013E71A4DAB6803F00C03082B3FF4F4AEE9
:104950001A4E0023022A336038D1FCF7D7FF0746EE
:104960002B6899012CD4D4E907321343626A43EAD5
:104970008213E26A43EA0263226B43EA0273A26A89
:104980000A4C5208013A43EA02436B600123336048
:10499000FCF7BCFF054623689A013FF5B6AEFCF76D
:1049A000B5FF401B0228F6D9DFE600BF0038024001
:1049B00000004742800E47420070004060004742BE
:1049C000FCF7A4FFC01B0228CAD9CEE6FCF79EFF65
:1049D00004462B689B017FF598AEFCF797FF001B00
:1049E0000228F6D9C1E600BF704738B50D46044627
:1049F000C8B190F82C3003F0FF021BB980F82D20CD
:104A0000FFF7F2FF022384F82C30211D206800F00C
:104A10006FF962682068294600F0A0F9012384F844
:104A20002C30002038BD0120FCE738B5044690F852
:104A30002C00C0B202280D460DD0022384F82C3081
:104A4000206800F0C8F92B68022B0CBF0523012356
:104A500084F82C30002038BD10B5044690F82C00A6
:104A6000C0B2022809D0022384F82C30206800F05C
:104A7000D7F9012384F82C30002010BD704703685B
:104A8000DA6842F00102DA609A6802F00702062A48
:104A90001EBF1A6842F001021A600020704770477A
:104AA00070477047704703681A69910710B504464C
:104AB0000ED5DA6892070BD56FF002021A619B6976
:104AC00001229B07027777D0FFF7EAFF00232377C5
:104AD00023681A69500710D5DA6851070DD56FF0B1
:104AE00004021A619B69022213F4407F2277204658
:104AF00068D0FFF7D5FF0023237723681A691207D0
:104B00000FD5DA6810070CD56FF008021A61DB695F
:104B100004229907227720465AD0FFF7C1FF0023CD
:104B2000237723681A69D20610D5DA68D0060DD526
:104B30006FF010021A61DB69082213F4407F2277BC
:104B400020464BD0FFF7ACFF0023237723681A6978
:104B5000D10708D5DA68D20705D56FF001021A61CE
:104B60002046FBF709FF23681A69100608D5DA68A2
:104B7000110605D56FF080021A61204600F0B7F8E3
:104B800023681A69520608D5DA68500605D56FF011
:104B900040021A612046FFF785FF23681A699106D3
:104BA00022D5DA6892061FD56FF0200220461A61DE
:104BB000BDE8104000F09AB8FFF771FF2046FFF7FC
:104BC00070FF83E7FFF76BFF2046FFF76AFF92E76E
:104BD000FFF765FF2046FFF764FFA0E7FFF75FFFE1
:104BE0002046FFF75EFFAFE710BD0000304A0368C4
:104BF000904212D0B0F1804F0FD0A2F57C4290428B
:104C00000BD002F58062904207D002F5806290429C
:104C100003D002F57842904219D14A6823F070031C
:104C20001343234A904229D0B0F1804F26D0A2F5F9
:104C30007C42904222D002F5806290421ED002F562
:104C4000806290421AD002F57842904216D0194AFA
:104C5000904213D002F5806290420FD002F580623C
:104C600090420BD0A2F59832904207D002F58062B4
:104C7000904203D002F58062904203D1CA6823F4C7
:104C8000407313434A6923F08003134303608B6826
:104C9000C3620B688362064B984203D003F58063BE
:104CA000984201D10B69036301234361704700BF40
:104CB000000001400040014010B50446A0B190F84A
:104CC0003D3003F0FF021BB980F83C20FFF7D6FE11
:104CD000022384F83D302068211DFFF787FF012360
:104CE00084F83D30002010BD0120FCE7704770477C
:104CF0002DE9F0414A6AD1E90743D1E90158D1E9E8
:104D000003ECD1E905760968012943EA0403124955
:104D100004680FD01A432A4342EA080343EA0E0309
:104D200043EA0C033B43214033430B430360002021
:104D3000BDE8F08113434268114045EA080242EAA7
:104D40000E0242EA0C023A4324F4F844324323436D
:104D50000A4303604260EAE70080FFFFCB68F0B5DA
:104D60000C688E680D695F1E4B6904F1FF3C4C684E
:104D70008969013B1B05013C013E013D0139012AC6
:104D80004FEA04144FEA06264FEA05454FEA01614F
:104D900043EA07330CD043EA0C03234382683343CE
:104DA0002B4302F070420B43134383600020F0BD9D
:104DB000876827F4700727F4704744EA06023B43EC
:104DC00042EA0C02C76883602A4307F070470A432F
:104DD0003A43C260EAE773B5002301931546D1E96F
:104DE00000321343CA6843EA42238A68013A43EA1D
:104DF00042130193019B03610446FCF787FD0646BD
:104E0000A06910F0200003D06B1CF9D015B9032065
:104E100002B070BDFCF77AFD801BA842F0D9F6E71E
:104E2000436943EA4101416100207047890141F033
:104E30002001064A0161013A05D0036913F02003FD
:104E4000F9D1184670470320704700BF410D030099
:104E50001023064A0361013A05D0036913F01003D9
:104E6000F9D1184670470320704700BF410D030079
:104E70000332920801EB820200F58050914201D189
:104E800008467047036841F8043BF7E742698069C8
:104E900010407047406900F001007047D0F80034BE
:104EA00023F0030310B5C0F80034D0F8004401F03B
:104EB00003032343012900F58062C0F8003404D1C4
:104EC0004BF680335360002010BD0229FBD141F224
:104ED0007073F7E700F58060406980B2704700EBBF
:104EE000411101F5A062D1F8003513F4802FD1F8FB
:104EF000003543F08043C1F800351ED1C36A13F476
:104F00007F0FD1F8003537D123F00043C1F80035C9
:104F1000D1F8003543F00043C1F80035D1F8003531
:104F200023F40043C1F8003540F2E933013B02D0DD
:104F300011680029FADB00207047D0F8103413F410
:104F40007F0FD1F8003517D123F00043C1F80035A9
:104F5000D1F8003543F00043C1F80035D1F80035F1
:104F600023F40043C1F8003540F2E933013BE2D0BD
:104F700011680029FADBDEE743F00043C1F8003591
:104F8000D9E7836823F0010310B51021044683603C
:104F9000FFF74CFF2046FFF75BFF04F5A06304F525
:104FA000E0601A46116821F0802141F0804142F80A
:104FB000201B8242F6D10020196821F4004141F003
:104FC000404119600130B0F57A7F02D81968002994
:104FD000F8DB20339A42EFD14FF0FF33C4F814349A
:104FE0006361A36843F00103A360002010BD08B50E
:104FF00001F058F9002008BD30B5B0F90840028A28
:105000000B46D0E9001585B0842C14BF033400246E
:1050100003A8CDE90040284601F082F801280CBF22
:105020000398002005B030BD01F090BB08B5002802
:1050300008BF012001F070FA002008BD07B5036821
:105040000093013913464A424A410348012101F0C5
:10505000FDFC03B05DF804FBCFA501081FB50024DB
:105060000394A14214BF0A460122EFF30583A3B1C2
:10507000009403AB092101F017FD012813D1039B14
:1050800013B9002004B010BD084B4FF080521A60D5
:10509000BFF34F8FBFF36F8FF3E70093042101F04D
:1050A00003FD0128EDD0FF20ECE700BF04ED00E098
:1050B000012000F015BD000013B500240194E0B1FB
:1050C000EFF30583A3B101AA214600F033FF0128C5
:1050D00002D0FF2002B010BD019B3BB1084B4FF046
:1050E00080521A60BFF34F8FBFF36F8F0020F1E73C
:1050F00000F05EFE0128F9D0EBE78020EAE700BF70
:1051000004ED00E013B500240194EFF3058393B19F
:1051100001A900F058FD012813D1019B13B900200B
:1051200002B010BD084B4FF080521A60BFF34F8F92
:10513000BFF36F8FF3E71A46194600F01FFC0128F2
:10514000EDD0FF20ECE700BF04ED00E0012910B531
:1051500008460CD10322002100F0CEFB044620B10A
:1051600000231A46194600F009FC204610BDBDE890
:10517000104000F0E5BB00001FB50024019103942E
:10518000A24208BF0122EFF30583ABB1234603AA75
:1051900001A900F0B7FC012802D0FF2004B010BD27
:1051A000039B3BB1074B4FF080521A60BFF34F8F08
:1051B000BFF36F8F0020F1E701A900F0DFFB0128AA
:1051C000F8D0EAE704ED00E008B501F0C5FA0128DF
:1051D00003D0BDE8084000F0A5B908BD0F4B30B5BD
:1051E0001D461A68824217D35C681919884201BFAC
:1051F0004168184609195960446801198A4206D164
:10520000A9688A421FBF5168126809194160984213
:10521000026018BF186030BD1346E2E70C0300209F
:105220002DE9F0413C4D044601F078F8AB68E3B954
:105230003A4A560702F5F0431DBF073222F0070233
:105240009B1A4FF4F0431344083B23F0070300215B
:1052500069602A60C3E90011991AC5E90311AB60BE
:10526000C2E900314FF000436B61D5F8148018EAB1
:10527000040F4BD1002C3CD004F1080358071CBF8D
:1052800023F007030833002B40D02F699F423DD302
:105290002E68214872689A4201D23168A1B9A96882
:1052A000B14233D0D21A316804680160102A12D991
:1052B000F01841070BD04FF0500383F31188BFF370
:1052C0006F8FBFF34F8FFEE730460E46E2E7426036
:1052D0007360FFF783FF7368E968FF1A48EA030306
:1052E0008F4273604FF000032F6138BFEF600834C6
:1052F000336001F0A7F863070AD04FF0500383F33F
:105300001188BFF36F8FBFF34F8FFEE70024F0E7E4
:105310002046BDE8F08100BF0C030020B00800204B
:1053200038B5044668B3174D50F8043C6A69134217
:1053300008D14FF0500383F31188BFF36F8FBFF391
:105340004F8FFEE750F8081C41B14FF0500383F334
:105350001188BFF36F8FBFF34F8FFEE723EA02037D
:1053600040F8043C00F0DAFF2A6954F8043CA4F148
:10537000080013442B61FFF731FFBDE8384001F00E
:1053800061B838BD0C03002082B0002301930D4B9F
:105390001B68013308D04FF0500383F31188BFF32B
:1053A0006F8FBFF34F8FFEE74FF0500383F31188E9
:1053B000BFF36F8FBFF34F8F019B002BFCD002B068
:1053C000704700BF4400002008480068006880F370
:1053D00008884FF0000080F3148862B661B6BFF30E
:1053E0004F8FBFF36F8F00DF00BF000008ED00E0BC
:1053F000DFF80C00016841F47001016070470000A3
:1054000088ED00E04FF0807340F8043C074B40F813
:105410000C3C21F001016FF0020340F8081C40F839
:10542000202C40F8243C4438704700BF89530008C2
:10543000074B19680868B0E8F04F80F30988BFF39C
:105440006F8F4FF0000080F311887047AFF300803A
:10545000600300204FF0500383F31188BFF36F8F78
:10546000BFF34F8F0A4A13680133012B13600DD12C
:10547000084B1B6813F0FF0F08D04FF0500383F365
:105480001188BFF36F8FBFF34F8FFEE7704700BFE8
:105490004400002004ED00E0084A136843B94FF0CF
:1054A000500383F31188BFF36F8FBFF34F8FFEE775
:1054B000013B13600BB983F311887047440000204F
:1054C000EFF30980BFF36F8F154B1A681EF0100FB2
:1054D00008BF20ED108A20E9F04F10602DE9090087
:1054E0004FF0500080F31188BFF34F8FBFF36F8FE1
:1054F00001F038F84FF0000080F3118809BC1968FA
:105500000868B0E8F04F1EF0100F08BFB0EC108A2A
:1055100080F30988BFF36F8F704700BFAFF300803F
:105520006003002008B54FF0500383F31188BFF3E8
:105530006F8FBFF34F8F00F009FF18B1034B4FF08F
:1055400080521A60002383F3118808BD04ED00E047
:10555000084A0949002313600B60084B4FF47A7125
:105560001B68B3FBF1F30649013B0B600723136093
:10557000704700BF10E000E018E000E038000020B5
:1055800014E000E0384B394A13B51968914208D14C
:105590004FF0500383F31188BFF36F8FBFF34F8F2A
:1055A000FEE71A68324B9A4208D14FF0500383F35A
:1055B0001188BFF36F8FBFF34F8FFEE72D4B1A7823
:1055C000D2B20192FF221A701B78DBB28DF8033041
:1055D0009DF80320284B02F050021A7007225A60EF
:1055E00000219DF80300000602F1FF340DD401B143
:1055F0005A605A68032A11D04FF0500383F3118880
:10560000BFF36F8FBFF34F8FFEE79DF8032052006B
:10561000D2B28DF8032001212246E2E7120202F401
:10562000E0625A60019B134ADBB21370134B1A6895
:1056300042F470021A601A6842F070421A60FFF772
:1056400087FF0F4B00241C60FFF7D2FE0D4A136842
:1056500043F040431360FFF7B7FE00F083FFFFF70E
:1056600093FE204602B010BD00ED00E071C20F4174
:1056700070C20F4100E400E02403002020ED00E0B0
:105680004400002034EF00E0EFF305830F2B104AB5
:105690000DD910495B5C1178994208D94FF050033D
:1056A00083F31188BFF36F8FBFF34F8FFEE70A4B71
:1056B00052681B6803F4E063934208D94FF050032B
:1056C00083F31188BFF36F8FBFF34F8FFEE77047EF
:1056D00024030020F0E300E00CED00E000F10803FB
:1056E0004FF0FF324360C0E90223036100230360EF
:1056F000704700230361704743684B609A688A6073
:105700009A685160996003680861013303607047CB
:105710000A68531C30B50AD103695A684A6091601F
:105720008B605960036808610133036030BD00F18C
:1057300008035C6825689542EFD82346F9E7D0E96D
:10574000011203698A60826851605968814208BF0A
:105750005A60002202611A68013A1A60186870479C
:1057600010B50446FFF776FEA46BFFF795FEB4FA7A
:1057700084F0400910BD70B51546026C866B044676
:1057800042B905689DB9806801F046F8A560013608
:10579000A66370BD6DB940680FF079FB6368226C39
:1057A0001344A2686360934201D3236863600020BE
:1057B000EDE7C0680FF06BFB236CE26821685B4289
:1057C0001A448A42E2603EBFA2689B18E360022D41
:1057D000EDD10EB1013EEAE73046D8E7034610B4FA
:1057E0001A6C084662B1D9689C681144A142D9601C
:1057F00024BF1968D960D9685DF8044B0FF047BB26
:105800005DF8044B704770B50446FFF723FE94F82B
:10581000455004F124066DB2002D14DCFF2384F8FA
:105820004530FFF739FEFFF715FE94F8445004F1B8
:1058300010066DB2002D12DCFF2384F84430BDE861
:105840007040FFF729BE636A002BE7D0304600F0B6
:10585000F9FE08B100F072FF013D6DB2DCE723698B
:10586000002BE9D0304600F0EDFE08B100F066FFF5
:10587000013D6DB2DEE7000038B50D46044640B983
:105880004FF0500383F31188BFF36F8FBFF34F8F37
:10589000FEE7FFF7DFFDD4E90F3022686260434383
:1058A000D1181B1A1344A160E3600021FF23A163F8
:1058B00084F8443084F8453095B9236963B104F124
:1058C000100000F0BFFE38B10A4B4FF080521A6052
:1058D000BFF34F8FBFF36F8FFFF7DEFD012038BDA1
:1058E00004F11000FFF7FAFE04F12400FFF7F6FEC2
:1058F000F2E700BF04ED00E0F8B50D461746064696
:1059000040B94FF0500383F31188BFF36F8FBFF39B
:105910004F8FFEE748435030FFF782FC044648B102
:1059200055B92060C4E90F6501212046FFF7A4FFA7
:1059300084F84C702046F8BD00F150030360F1E795
:1059400010B50C4640B94FF0500383F31188BFF3F4
:105950006F8FBFF34F8FFEE7884208D24FF050039E
:1059600083F31188BFF36F8FBFF34F8FFEE70222DF
:105970000021FFF7C1FF00B1846310BD2DE9FF478F
:10598000884601921F46044640B94FF0500383F306
:105990001188BFF36F8FBFF34F8FFEE751B9036CD0
:1059A00043B14FF0500383F31188BFF36F8FBFF300
:1059B0004F8FFEE7022F0BD1E36B012B08D04FF086
:1059C000500383F31188BFF36F8FBFF34F8FFEE750
:1059D00000F0C2FE50B9019E4EB14FF0500383F368
:1059E0001188BFF36F8FBFF34F8FFEE700264FF094
:1059F0000009DFF8E8A037E0019D1DB9FFF74CFD75
:105A0000002050E016B902A800F054FEFFF744FD54
:105A100000F084FCFFF71EFD94F84430FF2B08BF14
:105A200084F8449094F84530FF2B08BF84F84590E3
:105A3000FFF732FD01A902A800F046FE002846D17A
:105A4000FFF708FDA26BE36B9A422FD1FFF724FD0D
:105A5000019904F1100000F0BDFD2046FFF7D3FED0
:105A600000F0F0FC50B30126FFF7F4FCA26BE36BEF
:105A70009A4201D3022FBFD13A4641462046FFF752
:105A80007AFE636A1BB104F1240000F0DBFD38B13B
:105A9000124B4FF080521A60BFF34F8FBFF36F8FDE
:105AA000FFF7FAFC012004B0BDE8F087FFF7F4FC33
:105AB0002046FFF7A8FE00F0C5FCD4E74FF0805366
:105AC000CAF80030BFF34F8FBFF36F8FCBE720468C
:105AD000FFF799FE00F0B6FC92E700BF04ED00E08E
